:10000000ABC00000C4C00000C2C00000C0C00000FF
:10001000BEC00000BCC00000BAC00000B8C00000F4
:10002000B6C00000B4C00000B2C00000B7C50000F8
:10003000AEC00000ACC00000AAC00000A8C0000014
:10004000A6C00000A4C00000A2C00000A0C0000024
:100050009EC000009CC000009AC0000098C0000034
:1000600096C0000094C0000092C0000090C0000044
:100070008EC000002E0355004E004F0053004D006F
:1000800041005300480042004F0058002000430048
:100090004F004E00540052004F004C004C004500F1
:1000A000520000001C0348004F005200490020008D
:1000B00043004F002E002C004C00540044002E0042
:1000C0000000040309040902290001010080FA0963
:1000D0000400000203000000092111010001225662
:1000E00000070502034000050705810340000512D3
:1000F000010002000000400D0F920000010102000B
:100100000105010905A1011500250135004501750D
:1001100001951005091901291081020501250746DD
:100120003B0175049501651409398142650095010B
:10013000810126FF0046FF000930093109320935E7
:100140007508950481020600FF0920950181020AC5
:10015000212695089102C00011241FBECFEFD2E0E6
:10016000DEBFCDBF11E0A0E0B1E0EEECFFE002C0E9
:1001700005900D92A230B107D9F721E0A2E0B1E0DD
:1001800001C01D92AC32B207E1F76BD21EC738CF67
:100190009093CD008093CC0088E18093C90086E0E5
:1001A0008093CA00089584B7877F84BF0FB6F89400
:1001B000A895809160008861809360001092600033
:1001C0000FBE80E890E00FB6F894809361009093A2
:1001D00061000FBED4C40895089542E360EC82E04C
:1001E00011D442E361EC81E00DC408959C0180913B
:1001F000C80087FF03C08091CE0008958FE99FE07B
:100200000197F1F700C000002150310981F780E02B
:1002100008959091C80095FFFCCF8093CE0008957B
:100220008091C80087FF08958091CE00F9CF4AB130
:1002300021E030E0B90102C0660F771F8A95E2F72E
:10024000CB01462B4AB99BB1809589238BB9089580
:100250004AB121E030E0B90102C0660F771F8A95EC
:10026000E2F7CB01962F909594239AB99BB1892BF5
:100270008BB90895DC0198E0FD01892F11928A95D0
:10028000E9F780E813968C93139714968C93149740
:1002900015968C93159716968C93169712969C9399
:1002A00012978091120190911301181619068CF47F
:1002B00088E0EAE0F1E001900D928A95E1F7809103
:1002C00012019091130101979093130180931201F1
:1002D000089580911901982F907486FFDBC0282F14
:1002E000207A09F0C3C012961C92129720911A012D
:1002F00020FDC8C085FF0AC080911A0180FD06C09C
:1003000086E0911187E012968C93129790911A01D2
:10031000969580911B01879588278795892B139641
:100320008C93139790911B01969580911C01879552
:1003300088278795892B14968C93149780911801A0
:1003400083FF05C082E090E011969C938E9380918C
:10035000180181FF07C08D919C91119784601196BF
:100360009C938E938091180182FF07C08D919C9180
:100370001197816011969C938E938091180180FF54
:1003800007C08D919C911197886011969C938E93D4
:100390008091180184FF07C08D919C911197806115
:1003A00011969C938E938091180187FF07C08D91C1
:1003B0009C911197806211969C938E938091180165
:1003C00085FF07C08D919C911197806411969C9335
:1003D0008E938091190180FF07C08D919C91119798
:1003E000806811969C938E938091180186FF07C0B8
:1003F0008D919C911197946011969C938E9380910E
:10040000190181FF07C08D919C91119798601196F9
:100410009C938E938091190182FF07C08D919C91CE
:100420001197916011969C938E938091190183FF8F
:1004300007C08D919C911197926011969C938E9319
:100440008091190184FF07C08D919C911197906153
:1004500011969C938E9388E0FD01AAE0B1E0019093
:100460000D928A95E1F782E090E02ECF203891F44A
:1004700021E012962C93129720911A0120FF0DC0B3
:100480009923A9F0282F207AB9F0203209F032CF31
:1004900025E013C087FF2ACFEFCF91112BCF22E0A9
:1004A00012962C93129720911A0120FF23CF23E05C
:1004B00012962C9312971ACF24E012962C9312972F
:1004C00019CF0F931F93CF93DF93CDB7DEB7289744
:1004D0000FB6F894DEBF0FBECDBF809122018430ED
:1004E00009F0B4C082E08093E9008091E80082FFC7
:1004F00012C08091E80085FF09C050E040E067E04D
:1005000070E0CE0101967DD18111F7CF8091E80096
:100510008B778093E80081E08093E9008091E80088
:1005200080FF12C08E010F5F1F4FC801A3DE50E095
:1005300040E068E070E0C80116D18111F8CF8091E9
:10054000E8008E778093E80085E071DE69DE80E068
:1005500060DE89E190E04ADE8093170181E059DE98
:1005600089E190E043DE8093160182E052DE89E16A
:1005700090E03CDE8093150183E04BDE89E190E062
:1005800035DE282F220F90911A019170922B9093B3
:100590001A01881F8827881F90911B019E7F892B35
:1005A00080931B0184E035DE89E190E01FDE282F77
:1005B000220F90911B019170922B90931B01881F29
:1005C0008827881F90911C019E7F892B80931C0196
:1005D00085E01FDE89E190E009DE282F220F90914F
:1005E0001C019170922B90931C01881F8827881FF3
:1005F00090911D019E7F892B80931D0186E009DE6D
:1006000089E190E0F3DD282F220F90911D01917078
:10061000922B90931D01881F8827881F90911E019F
:100620009E7F892B80931E0185E012DE909115013B
:100630008091170180931801809116018093190110
:1006400080911A0190FB80F980931A0128960FB6C9
:10065000F894DEBF0FBECDBFDF91CF911F910F91F8
:100660000895A89584B7877F84BF0FB6F894A8959E
:1006700080916000886180936000109260000FBEDE
:1006800092DD789489E190E083DD80E880936100D9
:100690001092610084E08093000110921401C6E082
:1006A000D0E085E0D5DD2FEF83EC99E0215080404C
:1006B0009040E1F700C0000085E0B9DD2FEF83EC4A
:1006C00099E0215080409040E1F700C00000219760
:1006D00041F7F7DE61D48FE99FE00197F1F700C0A1
:1006E0000000F7CF9C01DA01832F99278330910511
:1006F000B9F060F48130910561F10297E1F489E28B
:1007000090E026EC30E02D933C93089581329105E2
:1007100029F1829781F486E590E021E031E0F3CF82
:10072000C9019927213061F08230910579F0E2EC1E
:10073000F0E0892B39F090E080E030E020E0E3CF7A
:10074000E4EAF0E0849190E09F01DDCFE4E7F0E09F
:10075000F9CF82E190E02FEE30E0D5CF89E090E054
:1007600028ED30E0D0CFAF92BF92CF92DF92FF92D0
:100770000F931F93CF93DF936C01EB018A0195D107
:10078000F82E811124C00115110539F0F80180817E
:100790009181C81BD90BC80ED91EB12CA12C209752
:1007A000B1F08091E80085FD22C08091E8008E774D
:1007B0008093E800F1D301151105A1F0F8018081C3
:1007C00091818A0D9B1D9183808385E0F82E8F2D6A
:1007D000DF91CF911F910F91FF90DF90CF90BF904D
:1007E000AF90089562D18823D1F2F82EF0CFF601B0
:1007F00081916F018093F1002197FFEFAF1ABF0A3B
:10080000CECFAF92BF92CF92DF92FF920F931F9302
:10081000CF93DF936C01EB018A0147D1F82E811150
:1008200024C00115110539F0F80180819181C81BA0
:10083000D90BC80ED91EB12CA12C2097B1F08091F4
:10084000E80085FD22C08091E8008B778093E80066
:10085000A3D301151105A1F0F801808191818A0DC2
:100860009B1D9183808385E0F82E8F2DDF91CF91A2
:100870001F910F91FF90DF90CF90BF90AF900895A0
:1008800014D18823D1F2F82EF0CF8091F100F60137
:1008900081936F012197FFEFAF1ABF0ACECFFC0102
:1008A000CB012091290130912A012617370790F0BA
:1008B000009729F42091E8002E772093E80040E08B
:1008C000009751F4411108C08091E80082FF30C0C8
:1008D00080E00895C901F3CF209122012223A1F1E4
:1008E0002530A1F12091E80023FD2CC02091E800E3
:1008F00022FDEACF2091E80020FFE2CF2091F20014
:1009000030E0009719F02034310558F041E02034F0
:10091000310509F040E02091E8002E772093E800AF
:10092000CFCF41914093F10001972F5F3F4FE9CF27
:1009300080912201882341F0853041F08091E800C8
:1009400083FFC2CF81E0089582E0089583E0089597
:10095000FC01CB012091290130912A01261737078C
:1009600090F0009729F42091E8002E772093E8007A
:1009700040E0009751F4411108C08091E80082FFE7
:1009800031C080E00895C901F3CF209122012223D4
:10099000A9F12530A9F12091E80023FD2DC0209177
:1009A000E80022FDEACF2091E80020FFE2CF20916D
:1009B000F20030E0009719F02034310558F041E0A2
:1009C0002034310509F040E02091E8002E77209393
:1009D000E800CFCF44914093F100319601972F5F0B
:1009E0003F4FE8CF80912201882341F0853041F0CC
:1009F0008091E80083FFC1CF81E0089582E00895EF
:100A000083E00895982F953028F08F708093E90047
:100A100081E008959093E900242F762F50E09817F5
:100A200031F07091EC002091ED005091F00021FD2B
:100A300002C09F5FE8CF3091EB003E7F3093EB0028
:100A40003091ED003D7F3093ED003091EB0031604F
:100A50003093EB007093EC002093ED005093F00086
:100A60002091EE0027FDE5CF80E0089580912301DD
:100A700087FF13C08091E80082FF06C08091E800E4
:100A80008B778093E80004C0809122018111F2CF1E
:100A90000895809122018823D9F38091E80080FF96
:100AA000F8CF8091E8008E77ECCF2091E400309170
:100AB000E50095E6A9012091EC00822F817020FFCE
:100AC00006C08091E80080FF06C080E00895209174
:100AD000E80022FD1AC080912201882389F0853028
:100AE00089F08091EB0085FD0FC02091E4003091EA
:100AF000E50042175307F9F29150E1F684E00895BA
:100B000082E0089583E0089581E0089541D043D0C4
:100B10008091D8008F778093D8008091D80080682A
:100B20008093D8008091D8008F7D8093D80084E096
:100B300089BD86E089BD09B400FEFDCF1092220177
:100B40001092210110921F011092200142E360E0F7
:100B500080E058DF8091E1008E7F8093E1008091FA
:100B6000E20081608093E2008091E20088608093DF
:100B7000E2008091E0008E7F8093E0000895E3E63C
:100B8000F0E080818E7F808381E080932B01BECF57
:100B90001092E20008951092E10008951F920F92C2
:100BA0000FB60F9211242F933F934F935F936F9340
:100BB0007F938F939F93AF93BF93EF93FF93809116
:100BC000E10082FF0AC08091E20082FF06C08091AE
:100BD000E1008B7F8093E100DED18091E10080FF16
:100BE00017C08091E20080FF13C08091E2008E7FE9
:100BF0008093E2008091E20080618093E200809126
:100C0000D80080628093D80019BC10922201E4DAE7
:100C10008091E10084FF27C08091E20084FF23C01F
:100C200084E089BD86E089BD09B400FEFDCF8091D6
:100C3000D8008F7D8093D8008091E1008F7E8093D3
:100C4000E1008091E2008F7E8093E2008091E200DB
:100C500081608093E200809121018823D9F184E0B2
:100C600080932201B8DA8091E10083FF22C0809155
:100C7000E20083FF1EC08091E100877F8093E10046
:100C800082E080932201109221018091E1008E7F09
:100C90008093E1008091E2008E7F8093E20080915A
:100CA000E20080618093E20042E360E080E0AADE3F
:100CB00072D1FF91EF91BF91AF919F918F917F91F1
:100CC0006F915F914F913F912F910F900FBE0F90B9
:100CD0001F9018958091E30087FD02C081E0C0CF8E
:100CE00083E0BECF1F93CF93DF93CDB7DEB7AA9734
:100CF0000FB6F894DEBF0FBECDBF83E291E0FC01DA
:100D000001962091F100208321E08B329207B9F700
:100D10006CDA8091E80083FF10C0809123019091EC
:100D20002401953009F4C1C000F5292F2D7F213011
:100D300009F488C0992309F45DC08091E80083FF1D
:100D40000AC08091E800877F8093E8008091EB00E3
:100D500080628093EB00AA960FB6F894DEBF0FBEB8
:100D6000CDBFDF91CF911F910895983009F4D4C081
:100D7000993009F4DEC0963001F780588230E8F6E9
:100D800080912501909126018C3D23E0920709F086
:100D9000AEC083E08A838AE289834FB7F894DE018C
:100DA000139620E03EE051E2E32FF0E0509357002D
:100DB000849120FF03C082958F703F5F8F708A30CF
:100DC00008F493C0895C90E08D939D932F5F24314C
:100DD00059F74FBF8091E800877F8093E8006AE26F
:100DE00070E0CE0101965BDD8091E8008B77809307
:100DF000E800A3CF803899F0823809F09ECF809127
:100E000027018F70853008F098CF8093E90080919A
:100E1000EB0085FB882780F91092E90006C08091DD
:100E2000200190911F01911182609091E800977FBD
:100E30009093E8008093F1001092F1008091E80017
:100E40008E77A5C0882309F492C0823009F075CF4F
:100E500080912501811196C0809127018F702FEF1D
:100E6000280F243008F069CF8093E9002091EB002F
:100E700020FF88C0933031F48091EB008062809332
:100E8000EB0080C09091EB0090619093EB0021E02B
:100E900030E001C0220F8A95EAF72093EA00109211
:100EA000EA008091EB008860EACF811146CF109173
:100EB00025011F778091E3008078812B8093E300E8
:100EC0008091E800877F8093E800D0DD8091E80082
:100ED00080FFFCCF8091E30080688093E30082E094
:100EE000111183E08093220128CF805D6CCF609147
:100EF000270170912801AE014F5F5F4FF3DBBC010A
:100F0000892B09F41ACF8091E800877F8093E8004D
:100F100089819A811DDD68CF803809F00ECF8091DC
:100F2000E800877F8093E800809121018093F100A1
:100F300085CF811102CF90912501923008F0FDCE2E
:100F40008091E800877F8093E800909321018EDDF7
:100F500080912101882311F084E005C08091E30095
:100F600087FDFACF81E08093220137D9E6CE8091C8
:100F70002501813009F0E1CE81E0933009F080E075
:100F800080931F011092E9008091E800877F809391
:100F9000E8006CDDD2CE0895CF93809122018823A2
:100FA00091F08091E900C091EC00C795CC27C795DE
:100FB0008F70C82B1092E9008091E80083FD92DECB
:0E0FC000CF70C093E900CF910895F894FFCF51
:020FCE0004001D
:00000001FF
